:020000040800F2
:1000000068880120710300081F2A0008D928000809
:100010001D2A0008690B0008F530000800000000E8
:100020000000000000000000000000007D02000849
:100030006B0B000800000000D9020008A92C000882
:100040008B0300088B0300088B0300088B03000858
:100050008B0300088B0300088B0300088B03000848
:100060008B0300088B0300088B0300088B03000838
:100070008B0300088B0300088B0300088B03000828
:100080008B0300088B0300088B0300088B03000818
:100090008B0300088B0300088B0300088B03000808
:1000A0008B0300088B0300088B0300088B030008F8
:1000B0008B0300088B0300088B0300088B030008E8
:1000C0008B0300088B0300088B0300088B030008D8
:1000D0008B030008E93000088B0300088B0300083D
:1000E0008B0300088B0300088B0300088B030008B8
:1000F0008B0300088B0300088B0300088B030008A8
:100100008B0300088B0300088B0300088B03000897
:100110008B0300088B0300086D2D00088B0300087B
:100120008B0300088B0300088B0300088B03000877
:100130008B030008050C00088B0300088B030008E4
:100140008B0300088B0300088B0300088B03000857
:100150008B0300088B0300088B0300088B03000847
:100160008B0300088B0300088B0300088B03000837
:100170008B0300088B0300088B03000800000000BD
:100180008B0300088B03000800F002F800F067F80A
:100190000AA090E8000C82448344AAF10107DA45E2
:1001A00001D100F05CF8AFF2090EBAE80F0013F0CD
:1001B000010F18BFFB1A43F0010318473C5501001B
:1001C0007C5501000A4410F8014B14F00F0508BFDC
:1001D00010F8015B240908BF10F8014B6D1E05D013
:1001E00010F8013B6D1E01F8013BF9D1641E03D0EC
:1001F000641E01F8015BFBD19142E4D3704700001B
:10020000103A24BF78C878C1FAD8520724BF30C842
:1002100030C144BF04680C60704700000023002414
:1002200000250026103A28BF78C1FBD8520728BF06
:1002300030C148BF0B607047642900F08D81782978
:1002400000F0C681732900F02B84002070471FB591
:1002500015F060F800F099FA1FBD10B510BD00F060
:1002600055FC1146FFF7F3FF08F016FB00F073FC96
:1002700003B4FFF7F2FF03BC02F054FF2C4B1968E4
:100280000868B0E8F04F80F30988BFF36F8F4FF034
:10029000000080F3118870470000000008480068E3
:1002A000006880F308884FF0000080F3148862B67D
:1002B00061B6BFF34F8FBFF36F8F00DF00BF00BF8A
:1002C00008ED00E0DFF80C00016841F47001016006
:1002D000704700BF88ED00E0EFF30980BFF36F8F38
:1002E000134B1A681EF0100F08BF20ED108A20E98A
:1002F000F04F106009B44FF0500080F31188BFF345
:100300004F8FBFF36F8F14F081F84FF0000080F330
:10031000118809BC19680868B0E8F04F1EF0100F8A
:1003200008BFB0EC108A80F30988BFF36F8F704765
:1003300004C00120EFF30580704700000B49D1F89D
:1003400000C04A685CF8043B1068184442F8040B8B
:100350008C4528BFA1F1DC0C8A4228BFA1F1DC0248
:10036000C1F800C04A6020F0004070475CC6012020
:100370000948804709480047FEE7FEE7FEE7FEE739
:10038000FEE7FEE7FEE7FEE7FEE7FEE70448054975
:10039000054A064B704700005D2D000889010008E2
:1003A00068C601206888012068C80120688401208F
:1003B000704753EA020C00F069802DE9F04B4FF0D2
:1003C0000006002B1FBFB3FA83F503FA05F424FAE5
:1003D00005F65E4012BF1643B2FA82F502FA05F442
:1003E000C5F120051EBF22FA05FC44EA0C042035A5
:1003F00056EA044C4FEA144418BF641C4FF000083E
:100400004FF00009904271EB030C39D3002919BF5A
:10041000B1FA81F701FA07F6B0FA80F700FA07F6A9
:10042000C7F120071EBF20FA07FC46EA0C0620375A
:10043000B6FBF4FCA7EB0507103F07F01F0BCBF151
:1004400020060CFA0BFB2CFA06F644BFB346002636
:10045000202FA4BF5E464FF0000B5BEA060C08BFDE
:100460004FF0010B19EB0B09ABFB027C48EB0608C4
:10047000C01B06FB02CC0BFB03CC71EB0C01C1E7EC
:100480000B46024641464846BDE8F08B13B54FF097
:1004900000004FF00001AFF30080BDE81C40704742
:1004A0000FB4044910B503AA029800F0FDFA10BC7D
:1004B0005DF814FB0400002070B5044685690068EF
:1004C000C10601D5302600E02026C00707D070BD48
:1004D000D4E9012130469047206A401C20626D1EFD
:1004E000F6D570BD70B5044685690078C00707D1A0
:1004F00070BDD4E9012120209047206A401C206271
:100500006D1EF6D570BD70B50C460546012A05D0A6
:100510002878800600D5EA69002302E0012305E07F
:100520005B1C934202D2E05C0028F9D1A869E6186E
:10053000C01AA861286A184428622846FFF7BCFF41
:1005400004E0D5E9012114F8010B9047B442F8D337
:100550002846FFF7C7FF70BD2DE9F041064600248D
:1005600010687529314616A510D0AFF30080002819
:1005700002DA404213A507E031688A0701D512A5C7
:1005800002E0490704D511A5012401E0AFF3008082
:1005900000210A2206F1240709E0B0FBF2FCB0FBBF
:1005A000F2F302FB1C00303078541846491C002836
:1005B000F3D123462A463046BDE8F04100F005BAA3
:1005C000000000002D0000002B00000020000000B3
:1005D00070B504460D4621461068AFF300802188AF
:1005E000090502D50F4A7A4402E00E4A7A440E32D7
:1005F000002104F1240305E000F00F060009965DD8
:100600005E54491C0028F7D120780023000704D548
:10061000702D02D009B1022311322046BDE870408E
:1006200000F0D3B91E4F01002DE9F05F8946044662
:100630004FF0000ADFF824B1FB44C0F820A02046A8
:10064000E168884700287DD0252806D0D4E901211B
:100650009047206A401C2062F1E700255F46204653
:10066000E16888472028064607DB312E05D2B819F5
:1006700010F8200C08B10543F1E7A80701D525F0D3
:100680000405C4F81CA00027C4F818A02A2E09D01D
:10069000304602F040FD38B304EB8708303EC8F81E
:1006A000186019E059F8041B204604EB8702916199
:1006B000E1688847012F064618D1E069002820DA52
:1006C00025F020051DE0D8F8180000EB800006EBAF
:1006D00040003038C8F818002046E16888470646D0
:1006E00002F019FD0028EED1012F0AD02E2E08D1DC
:1006F0002046E16888477F1C0646022F45F020050A
:10070000C4DBA069002803DA404245F00105A0617E
:10071000E80701D025F01005A6B1A6F1410019287F
:1007200002D8203645F400654A4631462046256009
:100730004D46FFF781FD60B1012807D0ED1D25F082
:10074000070000E007E000F1080978E705F1040977
:1007500075E730467AE7206ABDE8F09FF44E010065
:100760000B4910B5A1F17C020A4CC2E937123721BE
:1007700006E000EB104342F82130074B00FB03403A
:100780000B1EA1F10101F4DC10BD0120E8E700001F
:10079000FCC50120E119D666CD0D010040EA010338
:1007A00010B59B070FD1042A0DD310C808C9121F1A
:1007B0009C42F8D020BA19BA884201D9012010BD54
:1007C0004FF0FF3010BD1AB1D30703D0521C07E021
:1007D000002010BD10F8013B11F8014B1B1B07D185
:1007E00010F8013B11F8014B1B1B01D1921EF1D1F6
:1007F000184610BD10B5431C02E010F8011B71B182
:100800008107FAD14FF0013202C88C1A8C4314EAE6
:10081000C211F9D0C01A0A0603D0C01E10BDC01AFA
:1008200010BD0A0401D0801E10BD0902FCD0401E7C
:1008300010BD032A40F2308010F0030C00F0158048
:1008400011F8013BBCF1020F624498BF11F801CBD3
:1008500000F8013B38BF11F8013BA2F1040298BF38
:1008600000F801CB38BF00F8013B11F0030300F0A2
:100870002580083AC0F0088051F8043B083A51F846
:1008800004CBA0E80810F5E7121D5CBF51F8043B4B
:1008900040F8043BAFF30080D20724BF11F8013BBE
:1008A00011F801CB48BF11F8012B24BF00F8013B20
:1008B00000F801CB48BF00F8012B704710B5203A73
:1008C000C0F00B80B1E81850203AA0E81850B1E809
:1008D0001850A0E81850BFF4F5AF5FEA027C24BFBF
:1008E000B1E81850A0E8185044BF18C918C0BDE8B6
:1008F00010405FEA827C24BF51F8043B40F8043B7F
:1009000008BF7047D20728BF31F8023B48BF11F833
:10091000012B28BF20F8023B48BF00F8012B70478D
:1009200002F0FF0343EA032242EA024200F002B867
:100930004FF000020429C0F0128010F0030C00F008
:100940001B80CCF1040CBCF1020F18BF00F8012B86
:10095000A8BF20F8022BA1EB0C0100F00DB85FEA54
:10096000C17C24BF00F8012B00F8012B48BF00F820
:10097000012B70474FF0000200B51346944696468F
:10098000203922BFA0E80C50A0E80C50B1F12001A2
:10099000BFF4F7AF090728BFA0E80C5048BF0CC050
:1009A0005DF804EB890028BF40F8042B08BF7047AE
:1009B00048BF20F8022B11F0804F18BF00F8012B20
:1009C000704770477047704770472DE9F0470D46F4
:1009D00099469246044600F124080168880604D529
:1009E000E06921F01001216000E00120A84201DD52
:1009F000471B00E00027A1697A1902EB0900081AD9
:100A0000A0612078C00602D42046FFF755FD0026DD
:100A100008E0D4E901211AF806009047206A401C3A
:100A2000761C20624E45F4DB2078C0060AD52046AD
:100A3000FFF742FD06E0D4E9012130209047206A0B
:100A4000401C2062381EA7F10107F4DC07E0D4E95E
:100A5000012118F805009047206A401C2062281EDA
:100A6000A5F10105F3DC2046FFF73CFD20780006E8
:100A700002D50220BDE8F0870120FBE710B54369ED
:100A800013B1AFF3008001E0FFF73DFD012010BD81
:100A9000127800F124010A7000224A700122EDE769
:100AA00011684FF0FF32E9E7074B70B50D467B4404
:100AB00000F015F80446284600F024F810B14FF075
:100AC000FF3070BD204670BD3B58000000487047A5
:100AD0000484012001694A1C02610878704700B54E
:100AE0008FB0CDE901310021059105497944CDE967
:100AF000031011466846FFF797FD0FB000BD0000D8
:100B0000E5FFFFFF007B00F0800070477546FFF7B0
:100B1000DDFFAE4605006946534620F007008546D6
:100B200018B020B5FFF732FCBDE820404FF00006BA
:100B30004FF000074FF000084FF0000B21F00701C5
:100B4000AC46ACE8C009ACE8C009ACE8C009ACE808
:100B5000C0098D46704710B50446AFF300802046AB
:100B6000BDE81040FFF784BBFEE77047F0B50023F7
:100B70001A464FF0004500BF016903EB830401EB07
:100B8000C4010A604A608A60CA600A620D604A62F3
:100B9000466946F480464E604E6826F000464E6038
:100BA00000EB8306032BB16405D22827066907EB07
:100BB000C404344400E00469CC605B1C042BDBD328
:100BC000C26502668266C26682650169006800F5D8
:100BD0008050C160F0BD38B50446006800F5805013
:100BE000816941F480118161206800F5805080693D
:100BF0000090012000F0A6FA2068009900F58050CE
:100C0000816138BD014800F039BB0000DC4B002099
:100C100070B5A4B00125002406468DF828408DF853
:100C200004501494A8038DF8564005908DF8105088
:100C300002948DF80E508DF85440C0108DF811506C
:100C40008DF81F408DF8204006908DF81E508DF8CD
:100C50000F4009948DF81C4012948DF84C408DF88B
:100C600055406946304600F041F98DF881508DF8C5
:100C700080408DF8824028041B908DF868508001D8
:100C80001F908DF870508DF8885040128DF871507B
:100C90001E941D908DF87250239421948DF88950E4
:100CA00019A93046199400F0C1F824B070BD0000B5
:100CB0002DE9F043836A1830914650F823208D685F
:100CC0001C4617680026002F6BDB00EB83077F694B
:100CD000BFBBD5F800C00127C2F808C0D2F804C0D5
:100CE000D5F804806FF30C0C4CEA080CC2F804C071
:100CF00091F800C05FEACC7C09D0D2F800C0D1F8EE
:100D000014802CF4400C4CEA080CC2F800C091F896
:100D100000C05FEA8C6C09D5D2F800C0D1F8108011
:100D20002CF0406C4CEA080CC2F800C00978490766
:100D300003D5116841F080011160116841F08051C4
:100D400048E02EE0116821F0005111601168B9F1FE
:100D5000000F02D041F0804101E021F0804111609C
:100D60005B1C042B00D31B1F50F8232011680029A3
:100D700003DB00EB83014969B1B150F82420002165
:100D80000DE000BFBFF35F8F136823F000431360D3
:100D9000641C042C00D3241F491C50F82420B942A1
:100DA000F0D30220BDE8F083116821F0805111607A
:100DB000AD68296891605168D5F804C06FF30C01E3
:100DC00041EA0C015160761C7F1CBFF35F8F1168F4
:100DD00041F000411160A9680029B3D11168B9F14F
:100DE000000F02D041F0804101E021F0804111600C
:100DF000116841F00051116050F82410BFF35F8F6B
:100E00000A6842F000420A6000EB8302416A5161C5
:100E1000EFF31081012282F310880361826A761C4D
:100E2000324481F3108882620020BBE770B50C4623
:100E30000168054601F5805188692B4A1040227BE4
:100E4000EAB30022637B920642EA4362637FBBB34C
:100E50005FF0000342EA0352A37B42EA4352636914
:100E60001A43237F42EAC312A37F42EA8312236A12
:100E70001A4394F8243042EA830202438A612868C4
:100E800000F580508669012000F05CF9286800F5C3
:100E900080508661A169A06822790843216941EAEE
:100EA0004261084394F8251040EAC110A16A40EA63
:100EB00081002168084340F40001286801E00FE048
:100EC00010E000F580500160286800F5805004684B
:100ED000012000F037F9286800F58050046070BDEB
:100EE0000122AFE70123B5E7233FDEF870B50268C2
:100EF00005460C4610683C49A37B0840A16841EABE
:100F00004361237C002B64D00023667CDB05002E2C
:100F100061D0002643EA86531943E37F41EA034147
:100F200063691943A37FEBB35FF0000341EA4331E8
:100F3000237F41EA0331A3691943237941EA8321DD
:100F400094F820307BB3002341EA4321E37B41EA5C
:100F5000C311636A194394F8283041EA031101432D
:100F6000116028680668012000F0ECF82868066027
:100F70002A6890694FF641710840A36C216D41EADF
:100F8000034194F84C3063B3002394F85560DB01BF
:100F9000012E00D0002643EAC603194394F85630C8
:100FA000012B01E019E01AE000D0002341EA83019F
:100FB00094F85430012B00D0002341EA430101434F
:100FC000916128688469012000F0BCF82868846178
:100FD00070BD012399E701269CE70123A6E70123C1
:100FE000B2E70123D1E700000F8120FD2DE9F8438E
:100FF000044600200090A56E4FF0010804EB850028
:10100000E76E866C1EE0306A30B9684600F09CFBE3
:10101000009880B33062B060B8F1000F12D0A06DBC
:10102000002860692BD040F480407060306840F048
:10103000004030606D1C042D00D32D1F04EB850093
:101040007F1E866C17B1B8F1000FDCD1E06EB8429C
:101050000FD0E81C00F00300BFF35F8F216900EBA5
:10106000800001EBC001206800F580508160C4E978
:101070001A57BDE8F883FFE74FF00008E2E701499F
:101080000843D2E70040008072B6FEE72DE9F04148
:101090000446876D00F074FD064694F8350000257F
:1010A000022806D08020606584F834500120BDE815
:1010B000F0812068016821F0160101602068416913
:1010C00021F080014161206C08B9A06C20B120683A
:1010D000016821F0080101602068016821F0010128
:1010E00001600CE000F04CFD801B052807D9202092
:1010F0006065032084F8350084F83450D7E7206811
:101100000068C007EED194F85C103F208840B860BA
:10111000012084F8350084F834500020C7E790F8A7
:101120003510022903D08021416501207047052137
:1011300080F835100068016821F00101016000208D
:101140007047000070B5044600F01AFD0546601CAB
:1011500002D004480078044400F012FD401BA04275
:10116000FAD370BD2800002010B500F00BF800067F
:1011700005D503484068BDE8104009F081BD10BDA9
:1011800008000020D0F88C007047D0F88800704725
:10119000002970D002681268C2F3001281F828207A
:1011A0000268126802F060024A620268126842F342
:1011B0004022521C81F8202002681268C2F30042CB
:1011C000CA770268126842F34032521C8A7702687A
:1011D0001268C2F300320A770268126802F40062F1
:1011E0008A610268126802F480424A6102681268E9
:1011F00042F38052521C4A740268126842F3C05291
:10120000521C0A7402681268C2F3C012CA730268E0
:10121000126802F460228A6002681268C2F38022B7
:101220000A7102681268C2F340628A7302689269A6
:10123000C2F3400281F854200268926942F3C0125E
:10124000521C81F84C200268926902F030020A6553
:1012500002689269120C8A6402689269C2F3800281
:1012600081F8562000688069C0F3C00081F85500FD
:1012700000207047FFE70120FBE700002DE9F04761
:101280000446006850F8387FD0F8DC5FD0F8E46F8F
:10129000DFF8B490D9F8008000F6C870690606D56A
:1012A000710604D529494161204600F071FA05EA2A
:1012B0000600C00708D020684FF0011100F58050EB
:1012C0004161204600F05AFB280423D5300421D583
:1012D000D4F8880040F00800C4F88800A80420680A
:1012E00000F580500CD54169194A1140C4F88C10A2
:1012F000C16921F4C031C161E020C4F8840006E076
:10130000426948F280610A40C4F88C20416120465D
:10131000FFF72AFF38070BD52068C06A00F060008D
:10132000C4F89400204600F03BF90020C4F8940073
:101330005FEA083006D54FF40021C9F800102046B6
:1013400000F024FBBDE8F087143C014040000100A0
:1013500000207E00F8B5040003D0D4F8840010B15A
:1013600007E00120F8BD2020C4F88400204600F0EA
:1013700093F845480025016841F480410160006808
:1013800000F4804000904148016821F400010160B0
:101390000168A268114301600068206800F5805070
:1013A000016841F00101016000F0EAFB06464FF4DC
:1013B000FA770BE000F0E4FB801BB84206D904206A
:1013C000C4F88800E020C4F88400CAE7206800F56B
:1013D00080500068C007EDD12046FFF719FC0021BE
:1013E000E06801EB810200EBC200056045608560AA
:1013F000C56004EB81039861036843F480130360C4
:10140000032905D22826E36806EBC2021A4400E04D
:10141000E268C260026842F440020260491C04298A
:10142000DED3A5622068E16800F5805001612046A6
:10143000FFF79CFB6068164A818811640178C378C5
:1014400041EA0361837840781B0443EA00200143AA
:1014500051642068C16B41F40271C1632068D0F807
:101460000C110C4A1143C0F80C112068D0F810116F
:1014700041F40311C0F81011C4F888501020C4F8CA
:1014800084000020F8BD00004438024004380140C8
:101490000080024060000200F0B587B004461421CD
:1014A0006846FFF767FA3849206888426AD13748AA
:1014B0000024016841F000710160016801F00071D1
:1014C0000591016841F080610160016801F080616F
:1014D0000591016841F000610160016801F000615F
:1014E0000591016841F001010160016801F001010D
:1014F0000591016841F002010160016801F00201FB
:101500000591016841F0040101600068022500F0C6
:10151000040005908620CDE9000502AA03260B27CA
:1015200082E8D00069461A4800F032FA4FF4605061
:10153000CDE9000502AA694682E8D000154800F00E
:1015400027FA3220CDE9000502AA694682E8D000D8
:10155000114800F01DFA002205213D2000F0AEFBED
:101560003D2000F09DFB09481430016841F48041A2
:101570000160006800F4804005900848016841F46B
:101580000001016007B0F0BD008002403038024029
:1015900000000240000402400008024004380140FC
:1015A00070472DE9F84F4FF000075FEA0109044644
:1015B000B84604D0D4F8840040285AD105E054F845
:1015C000880F40F00100206053E0E66D4FF0000B03
:1015D00004EB8600856CE06EC0F1040A36E02868F2
:1015E000C00503D5E869A067A86960672868800519
:1015F00001D4E06F10B32868800503D5C4F860B04B
:10160000C4F864B02868C0F30D4000902868C00595
:1016100003D528684FF001082067AA682A6204F100
:101620008001081F009B00F0B9F8206E401C206666
:10163000616E009808446066C5F820B0761C042EE0
:1016400000D3361F04EB86007F1C856C28680028B9
:1016500004DB574502D2B8F1000FC0D0E06EC019CC
:10166000E06602D02046FFF7C1FCE665B8F1010F45
:1016700002D00120BDE8F88FE16FC9F8001000200A
:10168000C4F87CB0F6E700002DE9F0419846036805
:101690000546186900F01C044FF6FF7000EAC120EF
:1016A0004FF4F861204301EA8211014321F0020066
:1016B00040F001041C6100F063FA06464FF48037E5
:1016C0000AE000BF00F05CFA801BB84202D30120A0
:1016D000BDE8F08128680469E007F3D12868406913
:1016E00081B20020C8F80010F2E700002DE9F047B1
:1016F00000F118058046D5E90A64012719E000BF0A
:1017000005EB8409761ED9F81400C0B1D8F80C1086
:1017100004EB840251F8321000290DDB00F034F99B
:101720000021641CC9F81410042C00D3241FC5E93F
:101730000A640EB1002FE3D10020BDE8F087641CDD
:10174000042CF6D3241FF4E71CB504460D4807F01B
:101750003FFD03000FD003F1200020600A4818610C
:101760004FF4C0612068CDE9000100214122084604
:1017700009F0E4FC1CBD0549012008700020206030
:101780001CBD000068530108C1B700080800002014
:101790000148406809F074BA0800002010B5002420
:1017A00042F8204D1481538104681CB10C682260FA
:1017B0000A6004E00260FBE70189194401810068C6
:1017C0000028F9D110BD10B519B1D0F88420102A25
:1017D00001D0012010BDFFF789FB002010BD0000E3
:1017E00070B50446D0F88400102801D0012070BDE7
:1017F0002020C4F884000120A0650420E066204673
:10180000FFF7F4FB206805680120FFF79BFC2068C8
:101810000560206800F58050816941F400518161C4
:10182000206800F58050816941F002018161204605
:10183000FFF7D1F92068016841F0080101602068D4
:1018400005680120FFF77EFC2068056020680168BC
:1018500041F004010160206800F58050C169044A2C
:101860001143C1614020C4F88400002070BD000015
:10187000C1A0010070B50446D0F88400402801D012
:10188000012070BD2020C4F88400206800F580503D
:10189000C1691F4A1140C161206800F5805081690B
:1018A00021F400518161206800F58050816921F0A8
:1018B000020181612068016821F004010160206853
:1018C00005680120FFF73EFC206805602046FFF711
:1018D00082F92068016821F008010160206805682C
:1018E0000120FFF72FFC20680560002004EB800139
:1018F000896C4A6842F000424A60401C0428F5D3D3
:101900000020A0651020C4F88400002070BD0000F5
:101910003E5FFEFF10B5044621B1D4F88400402894
:1019200005D010E054F8880F40F001000AE0486B41
:10193000E06301222046FFF7BBF930B154F8880F6D
:1019400040F002002060012010BDBFF34F8FA06A5D
:10195000401CA062042801D3001FA062206800F58B
:1019600080504169490706D5042141612068002162
:1019700000F580504160002010BD000001488068E3
:1019800009F07EB90800002009F068BE7047000029
:101990002DE9F84FDFF8BCA10022012503264FF006
:1019A0000F090AF1040BAAF1040E00BF0B6805FA37
:1019B00002F42340A34270D10F7907F00307012FEF
:1019C00001D0022F16D187684FEA420806FA08FCB8
:1019D00027EA0C07D1F80CC00CFA08FC4CEA070CFB
:1019E000C0F808C04768A7430C79C4F300149440BA
:1019F0003C4344600C79E443A4070AD0C4684FEA2E
:101A0000420C06FA0CF7BC438F6807FA0CF7274321
:101A1000C7600C7904F00304022C12D1D40800EB47
:101A2000840CDCF820405707FF0E09FA07F824EA77
:101A30000804D1F8108008FA07F848EA0408CCF83E
:101A4000208004684FEA420C06FA0CF7BC430F7979
:101A500007F0030707FA0CF7274307604C6814F4F4
:101A6000403F70D03C4C276847F48047276024688B
:101A700022F0030704F480440094384C07EB040C74
:101A8000DCF8084897074FEA177809FA08F7BC43CB
:101A9000334FB84202D1002724E054E0314FB8421E
:101AA00001D101271EE0304FB84201D1022719E0D1
:101AB0002E4FB84201D1032714E02D4FB84201D177
:101AC00004270FE02B4FB84201D105270AE02A4F27
:101AD000B84201D1062705E0284FB84201D10727B7
:101AE00000E0082707FA08F72743CCF80878DAF867
:101AF00000405746D1F804C09C435FEACC2C00D587
:101B00001C433C60DBF800405F46D1F804C09C43B6
:101B10005FEA8C2C00D51C433C60DEF80040774621
:101B2000D1F804C09C435FEA8C3C00D51C433C6068
:101B3000084F083F3C68D1F804C09C435FEACC3CA6
:101B400000D51C433C60521C102AFFF42FAFBDE8A7
:101B5000F88F0000083C014044380240003001404A
:101B6000000002400004024000080240000C024055
:101B7000001002400014024000180240001C024005
:101B800001488068704700002800002002488168F2
:101B90000278114481607047280000200B4810B57E
:101BA000016841F400710160016841F480610160E5
:101BB000016841F480710160032000F09FF80F205C
:101BC00000F006F800F050F8002010BD003C024084
:101BD00030B505461F4887B00024016841F0100168
:101BE0000160006806A900F01000009001A800F054
:101BF00031F90498A8B100F04DF940001649174A90
:101C0000B0FBF1F11648491E026040F2E732C0E92C
:101C10000324C0E90114846100F044FB040003D0F4
:101C200015E000F037F9E9E70D4800F069FB040022
:101C30000DD1362000F034F8102D07D200222946AD
:101C4000362000F03BF80748056000E0012407B0AB
:101C5000204630BD4038024040420F000010004096
:101C6000D8C001202C0000200C4882B0016841F44B
:101C700080410160006800F4804000900748001F28
:101C8000016841F0805101600068002200F080503E
:101C900000900F21901E02B000F010B844380240AE
:101CA000002809DB00F01F0201219140400980005B
:101CB00000F1E020C0F8001170470000F0B40E4BB6
:101CC0001B680C46C3F30223C3F10705042D00D99A
:101CD0000425191D072901D2002300E0DB1E01267F
:101CE00006FA05F1491E214099409E40761E164095
:101CF0003143F0BC01F0FFB90CED00E0064900F003
:101D0000070208684FF6FF03184040EA0220034A22
:101D100010430860704700000CED00E00000FA0579
:101D20002DE9F0470E46050065D0DFF81481D8F89C
:101D30000000F7B200F00700B04207D288F8007048
:101D4000D8F8000000F00700B04254D128683D4C9C
:101D5000810712D5400703D5206840F4E050206089
:101D60002878000703D5206840F460402060206890
:101D7000A96820F0F000084320602878C0072DD023
:101D8000304968680839012812D0022813D0032886
:101D900011D00968890700292DDA216821F0030193
:101DA00001432160FFF7ECFE814641F2883A0EE0E4
:101DB00009688903EFE709688901ECE7FFF7E0FEAE
:101DC000A0EB0901514502D90320BDE8F087206846
:101DD000696800F00C00B0EB810FEFD1D8F800106B
:101DE000404601F00701B14207D90770006800F0D2
:101DF0000700B04201D00120E7E72878400705D569
:101E00002068E96820F4E050084320602878000743
:101E100006D52068296920F4604040EAC1002060AE
:101E200000F058F82168084AC1F30311515CC8401A
:101E30000649086006480068FFF7CAFE0020C4E7AC
:101E4000003C02400838024074530108340000206E
:101E50002C0000200F2202600C4A136803F00303D9
:101E60004360136803F0F0038360136803F4E053E6
:101E7000C36012684FF4E05303EAD20202610448DF
:101E8000006800F007000860704700000838024052
:101E9000003C02400448054900680968044AC1F34F
:101EA0008221515CC840704734000020083802404D
:101EB000845301080448054900680968044AC1F3CD
:101EC0004231515CC840704734000020083802405D
:101ED00084530108154810B5006810F00C0214482E
:101EE00013D04110042A0FD0082A0ED10F4C241F02
:101EF0002268236802F03F025B0207D52068C0F326
:101F00008810A0FB010106E0084610BD2168C1F35E
:101F10008811A1FB00010023FEF74BFA2168C1F3F1
:101F20000141491C4900B0FBF1F010BD08380240E6
:101F30000024F4002DE9F84F04006ED02078DFF87B
:101F40004C93C007A9F104054AD009F104000168C7
:101F5000C1F38101012908D00068C0F38100022883
:101F60000AD1D9F80000400206D52868800337D589
:101F700060680028E1D033E06068B0F5803F10D0A1
:101F8000B0F5A02F286810D020F480302860286891
:101F900020F4802028606068A8B1FFF7F1FD0646B4
:101FA0000DE0286840F48030F4E740F48020286099
:101FB000F7E700BFFFF7E4FD801B642873D82868AB
:101FC0008003F7D50CE0FFF7DBFD064605E000BF18
:101FD000FFF7D6FD801B6428F0D828688003F7D46B
:101FE0002078DFF8AC8280074FF0000A3ED5A74882
:101FF000001D016811F00C0F08D00068C0F38100CB
:1020000002280BD1D9F80000400207D428688007C5
:1020100016D5E068012800D112E033E1E068B8B1DC
:102020000120C8F80000FFF7ABFD064605E000BF41
:10203000FFF7A6FD801B0228C0D828688007F7D5C7
:102040002868216920F0F80040EAC10028600DE00E
:10205000C8F800A0FFF794FD064604E0FFF790FDE6
:10206000801B02281FD828688007F7D42078000733
:1020700022D5864F87486169703771B101210160AF
:10208000FFF77EFD064604E0FFF77AFD801B02287D
:1020900009D838688007F7D50EE0C0F800A0FFF730
:1020A0006FFD064605E082E0FFF76AFD801B02280F
:1020B0007DD838688007F7D42078400768D5DFF8E6
:1020C000CCB100270BF13C0BDBF80000C0000BD4B7
:1020D000DBF8001041F08051CBF80010DBF8000075
:1020E000012700F0805000906B4E3068C00510D47E
:1020F000306840F480703060FFF742FD009005E0EA
:10210000FFF73EFD0099401A022850D83068C005FC
:10211000F6D55E4EA0686C3601280FD005283068D1
:1021200010D020F001003060306820F004003060F2
:10213000A068B8B1FFF724FD00900FE0306840F0D0
:102140000100F4E740F004003060F7E7FFF718FD06
:102150000099411A41F28830814266D83068800780
:10216000F4D50EE0FFF70CFD009007E0FFF708FD47
:102170000099411A41F28830814256D83068800770
:10218000F4D42FB1DBF8001021F08051CBF800100F
:10219000A069C8B33D49091D0968C1F3810102293D
:1021A0004AD00228504607D0C8F8600000E03CE062
:1021B000FFF7E6FC04463BE04746C8F86000FFF73F
:1021C000DFFC064605E000BFFFF7DAFC801B0228B3
:1021D0002BD828688001F7D4D4E907010843A16A05
:1021E0002E4A490802EB0141626A41EA8211084322
:1021F00094F82C1040EA0161C9F8001001203866FB
:10220000FFF7BEFC044606E03EE000BFFFF7B8FC67
:10221000001B022809D828688001F7D534E000BFE8
:10222000FFF7AEFC001B022802D90320BDE8F88F9F
:1022300028688001F4D427E00128F7D0D9F80000FD
:10224000E26900F4800191421CD1226A00F03F0152
:10225000914217D147F6C071626A0140B1EB821F0B
:1022600010D1A26A4FF0FF3300F4403103EB520269
:10227000B1EB024F06D194F82C1000F07060B0EB77
:10228000016F01D00120D1E70020CFE704380240E0
:1022900000004742800E4742007000400000FFFFF0
:1022A0007047704710B5040003D094F83D0010B19A
:1022B00007E0012010BD002084F83C00204600F01B
:1022C0001EF8022084F83D00211D206800F054FD16
:1022D000012084F8460084F83E0084F83F0084F82A
:1022E000400084F8410084F8420084F8430084F8F8
:1022F000440084F8450084F83D00002010BD70477C
:1023000090F83D10012901D001207047022180F88A
:102310003D100168CA6842F00102CA6000681149B4
:10232000884214D0B0F1804F11D00F4988420ED0AE
:102330000E4988420BD00E49884208D00D49884288
:1023400005D00D49884202D00C49884204D18168E9
:1023500001F00701062903D0016841F00101016085
:1023600000207047000001400004004000080040C9
:10237000000C0040000401400040014000180040F3
:1023800070472DE9F04104460068C66805694FF0C2
:102390000007A90713D5B10711D5F91E0161012066
:1023A0002077206880698007204602D0FFF7E8FF89
:1023B00004E000F07EF8204600F07CF827776807FC
:1023C00016D5700714D521686FF00400086102204B
:1023D00020772068806910F4407F204602D0FFF704
:1023E000CFFF04E000F065F8204600F063F827779F
:1023F000280715D5300713D521686FF0080008614C
:10240000042020772068C0698007204602D0FFF7AB
:10241000B7FF04E000F04DF8204600F04BF82777B6
:10242000E80616D5F00614D521686FF01000086193
:10243000082020772068C06910F4407F204602D031
:10244000FFF79EFF04E000F034F8204600F032F879
:102450002777E80708D0F00706D021686FF0010061
:102460000861204600F028F8280608D5300606D571
:1024700021686FF0800008612046FFF711FF6806B1
:1024800008D5700606D521686FF040000861204627
:1024900000F01CF8A8060AD5B00608D521686FF030
:1024A000200008612046BDE8F041FFF7FABEBDE814
:1024B000F08170477047000000680349884201D1ED
:1024C000FFF764BB70470000001000407047704782
:1024D00070470000F8B5016804460868CA684B698F
:1024E00010F00F0F4FF0000559D003F0010602F471
:1024F0009077374365D0C10705D0D10503D5616C0E
:1025000041F001016164410705D5D90703D0616C31
:1025100041F002016164810705D5D90703D0616CE0
:1025200041F004016164010707D502F02001314345
:1025300003D0616C41F008016164616C00293AD0FC
:10254000800604D5900602D5204600F0ABFC20683A
:102550004069616CC0F38010090700D460B3204665
:1025600000F079FC20684069400621D520681430CD
:1025700050E8001F21F0400140E80012002AF5D188
:10258000E06BA8B172490165E06BFEF7C8FD002859
:1025900011D0E06B016D01B0BDE8F0400847830643
:1025A0000FD593060DD52046BDE8F84000F07ABC63
:1025B0002046FFF78DFFF8BD2046FFF789FF6564D1
:1025C000F8BD266B2023012E7ED1C6067CD5D6060B
:1025D0007AD508684868009048694FF002064006BE
:1025E0004DD5E26B106840684FF480770004000C12
:1025F0003AD0A18D814237D9E085D069B8422DD03B
:1026000020680C3050E8001F21F4807140E800126F
:10261000002AF5D12068143050E8001F21F0010194
:1026200040E80012002AF5D12068143050E8001F5D
:1026300021F0400140E80012002AF5D184F8423030
:10264000256320680C3050E8001F21F0100140E89D
:102650000012002AF5D1E06BFEF718FD6663A08D2D
:10266000E18D401A81B206E0A18D8142A8D1D069E6
:10267000B842A5D166632046FFF729FFF8BDA08DBB
:10268000E18D401A81B2E08D0028F7D00029F5D005
:1026900020680C3050E8002F22F4907240E80027A8
:1026A000002FF5D12068143050E8002F22F00102ED
:1026B00040E80027002FF5D184F8423025632068D8
:1026C0000C3050E8002F00E006E022F0100240E855
:1026D0000023002BF3D1CDE705062BD5150629D510
:1026E00094F841002128C9D1A068B0F5805F01D1DC
:1026F0002069B0B1206A411C2162216800784860DD
:10270000E08C401E0004000CE084B7D12068C16852
:1027100021F08001C1602068C16841F04001C160C2
:10272000F8BD206A0088C0F308004860206A801C59
:102730002062E5E74006F3D55006F1D5CA68204689
:1027400022F04002CA6084F8413000F0C4F8F8BDBD
:10275000492E000870B5040004D094F8410000250B
:1027600010B106E0012070BD84F84050204600F012
:1027700023F8242084F841002068C16821F4005126
:10278000C160204600F0F0FB2068016921F490410F
:1027900001612068416921F02A0141612068C16816
:1027A00041F40051C1606564202084F8410084F840
:1027B00042006563002070BD10B586B00446142148
:1027C0006846FEF7D7F818492068884229D117488B
:1027D0000021026842F010020260006800F0100060
:1027E000059012481438026842F001020260006845
:1027F00000F0010005904FF4C06000900220CDE988
:102800000101032003900720049069460848FFF760
:10281000BFF8002205212520FFF750FA2520FFF7F9
:102820003FFA06B010BD00000010014044380240DD
:102830000000024070472DE9F843044690F841003B
:10284000984616460D46202802D00220BDE8F8839F
:1028500085B17EB100206064212084F84100FFF73B
:102860008FF9A6848146E684A0682027B0F5805FB2
:1028700002D003E00120E9E7206910B12E460025CF
:102880000EE000260CE08021204600F0F3FBA8B902
:10289000C6B116F8010B21684860E08C401EE08448
:1028A000E08C4B464FF00002CDF800800028EAD1C2
:1028B0004FF04001204600F0DDFB40B184F841704C
:1028C0000320C3E735F8020BC0F30800E3E784F800
:1028D00041700020BAE77047FEE7000010B5044AD7
:1028E0000021044808F0F8F90349086010BD000011
:1028F00020530108212A000800000020114808B5D3
:10290000016841F080010160016801F080010091DF
:10291000016841F004010160016801F004010091C7
:10292000016841F001010160016801F001010091BD
:10293000016841F002010160006800F002000090AF
:1029400008BD0000303802400EB50021084610F0E6
:1029500069FA1C4900201D4A0860091D194B0860CE
:10296000091D08330860CDE90002174902911A1FBA
:10297000111F174807F0FEFB154807F017FE144813
:1029800007F02CFF124807F06FFE1249104807F0BD
:1029900067FE0F4824213830FDF7ECFF0C480EA1EC
:1029A0003830024601604FF480614161102181613D
:1029B00007490B4808F090F9BDE80E40044801F0C3
:1029C000FDBF00001C000020F52F0108F961000880
:1029D00020C10120C95E00084574684C696E6B0017
:1029E000CD5E00080C4810B50A4901604FF4E13192
:1029F0004160002181600C22C160C0E90412816144
:102A0000C161FFF7A7FE002803D0BDE81040FEF724
:102A10003BBB10BD00100140D0000020FEE7FEE7E8
:102A200070B58CB0FFF790FF242103A8FDF7A2FF3B
:102A30002422324903A8FDF741FF03AA00213048B0
:102A400008F04AF92FA0FDF72BFD3CA0FDF728FD6B
:102A500045A0FDF725FD514D00244FF4FA6600BF57
:102A600095F83100400741D54C4802F03BF800286A
:102A700030D04BA0FDF714FD2C46281D04F0EAFAD7
:102A8000014651A0FDF70CFD4448083004F0E2FA7D
:102A9000014654A0FDF704FD40480C3004F0DAFA7A
:102AA000014657A0FDF7FCFC94F82D0094F82F2068
:102AB00094F82E108DE8070094F82C3094F82B2011
:102AC00094F82A1055A0FDF7EBFC27A0FDF7E8FCD1
:102AD0000CB070BD641C61005DA0FDF7E1FC1E2C14
:102AE00007D96248FDF7DCFC002402E060A0FDF796
:102AF000D7FC304607F0C2FEB2E70000445301089D
:102B0000597900080D0A3D3D3D3D3D3D3D3D3D3D72
:102B10003D3D3D3D3D3D3D3D3D3D3D3D3D3D3D3DE5
:102B20003D3D3D3D3D3D3D3D3D3D3D3D3D3D3D3DD5
:102B30003D3D3D3D3D3D0D0A000000004C774950B4
:102B400020537461636B20496E697469616C697AA2
:102B500065642C207374617274696E672044484305
:102B6000502E2E2E0D0A00003D3D3D3D3D3D3D3D8C
:102B70003D3D3D3D3D3D3D3D3D3D3D3D3D3D3D3D85
:102B80003D3D3D3D3D3D3D3D3D3D3D3D3D3D3D3D75
:102B90003D3D3D3D3D3D3D3D0D0A000020C1012034
:102BA0000D0A5B444843505D20537563636573733E
:102BB00021204E6574776F726B2069732072656196
:102BC00064792E0D0A0000005B444843505D2049A3
:102BD0005020416464726573733A202025730D0A96
:102BE000000000005B444843505D205375626E65F1
:102BF00074204D61736B3A2025730D0A00000000AC
:102C00005B444843505D20476174657761793A20A1
:102C10002020202025730D0A000000005B45544849
:102C20005D204D414320416464726573733A2020F6
:102C3000253032583A253032583A253032583A2524
:102C40003032583A253032583A253032580D0A0081
:102C50005B444843505D2057616974696E672E2E4E
:102C60002E2028256473290D00000000445501081A
:102C70005B4C494E4B5D2045746865726E657420EF
:102C80006361626C6520697320444953434F4E4E23
:102C900045435445442120506C6561736520636849
:102CA00065636B2E0D0A000010B54FF0E02000693F
:102CB00012F036F9012803D0BDE8104011F052BCE3
:102CC00010BD000030B593B030216846FDF752FECC
:102CD00014210CA8FDF74EFE1E480025016841F0A6
:102CE00080510160006800F0805011901A4801681E
:102CF00041F4804101600068022400F4804011909A
:102D000001200090000401908001CDE906400820D8
:102D100008904FF4A870CDE9090404200B90684690
:102D2000FFF708F908B172B6FEE70CA90F2081E899
:102D300031004FF4A0500F904FF4805010900521B7
:102D40000CA8FEF7EDFF002801D072B6FEE713B025
:102D500030BD000040380240007000400248016869
:102D600041F470010160704788ED00E00148FFF711
:102D700008BB0000D8C00120F0B50268274B284DE1
:102D8000284E294F294C4FF0804C984209D060457D
:102D900007D0A84205D0B04203D0B84201D0A0422B
:102DA00004D122F0700E4A6842EA0E0298421BD00B
:102DB000604519D0A84217D0B04215D0B84213D000
:102DC000A04211D01A4DA8420ED01A4DA8420BD0E5
:102DD000194DA84208D0194DA84205D0184DA84257
:102DE00002D0184DA84203D122F44075CA682A4384
:102DF0004D6922F080022A438D68C5620D688562A4
:102E0000984201D0A04201D109690163016841F0F3
:102E100004010160012141610260F0BD0000014038
:102E20000004004000080040000C00400004014085
:102E300000400140004401400048014000180040AB
:102E4000001C00400020004010B5806B0021C185AF
:102E5000FFF73EFB10BD01680C3151E8002F22F452
:102E6000907241E80023002BF5D10168143151E83C
:102E7000002F22F0010241E80023002BF5D1016B65
:102E8000012909D101680C3151E8002F22F010020C
:102E900041E80023002BF5D1202180F842100021C9
:102EA0000163704708B590F84210222901D0022032
:102EB00008BD82684FF480539A4201D1016921B163
:102EC000816A9A421BD04AB10AE00268816A52685C
:102ED000C2F308020A80816A891C08E0026972B1A3
:102EE0000268526802F07F020A70816A491C81629E
:102EF000C18D491E0904090CC18503D01BE002687D
:102F00005268F1E70168CA6822F02002CA600168CD
:102F1000CA6822F48072CA6001684A6922F001021C
:102F20004A61202180F8421000214163026B012A8E
:102F300003D0FFF77FFC002008BD016301680C315E
:102F400051E8002F22F0100241E80023002BF5D1B8
:102F500001680A68D20602D50A6849680091818D25
:102F6000FFF7B5FAE7E7000070B5044600680169AD
:102F7000E26821F44051114301612169A068E269CE
:102F800008436169114308432168CA6849F20C6328
:102F90009A430243CA6020684169A26921F44071E2
:102FA0001143416131492068884202D0304988424A
:102FB00002D1FEF77FFF01E0FEF76CFFE26900231C
:102FC000192164253226B2F5004F626828D0A0FB93
:102FD0000101930F9200FDF7ECF90146B0FBF5F00B
:102FE0006FF01802504301EB800006EB0010B0FBBD
:102FF000F5F000F0F002B1FBF5F002EB0012B1FBCE
:10300000F5F06FF01803584301EB800006EB001059
:10301000B0FBF5F000F00F0021681044886070BD2F
:10302000A0FB010192185B41FDF7C3F90146B0FB1B
:10303000F5F00201B1FBF5F06FF01803584301EB16
:10304000800006EBC000B0FBF5F000F0F80002EBEA
:103050004002B1FBF5F0584301EB800006EBC000E5
:10306000B0FBF5F000F00700D6E7000000100140CB
:10307000001401402DE9F843984617460D460446D2
:10308000089E24E0701C22D0FEF77AFDA0EB080019
:10309000B0421AD8CEB12068C168490717D5802D33
:1030A00015D0402D13D00168C94309070FD401681A
:1030B0000025406800902046FFF7CDFE08206064A0
:1030C00084F840500120BDE8F8830320FBE7206826
:1030D000006835EA000004D00020B842D2D00020B9
:1030E000F1E70120F9E700000148FFF7F3B900001C
:1030F000D0000020FEE70907090E002804DB00F1DC
:10310000E02080F80014704700F00F0000F1E0208C
:1031100080F8141D704730380A2801D2012070470A
:1031200000207047704700002DE9F04790460E469A
:1031300004006FF0050555D004F11400814609F034
:10314000F5FE00284ED0EF1F002E3DD0B8F1000F45
:1031500006D032A340F22A223DA147A0FDF7A0F9F4
:103160002078616A06F0A6F905004FF0FF383DD0DF
:103170006E6009F00DFE2946484609F0CBFEA0B36B
:103180006C68002120460AF0F1F9002120460DF07C
:103190006BFE002120460EF0A9FB002211462046BE
:1031A0000CF094FE002120460AF060FE00206860CA
:1031B00005F11000044609F091FE204609F0A7FE33
:1031C000284606F029FB1FE0384605F08FFA014635
:1031D000484609F09FFE28B9636A1BB100221146D8
:1031E000204698472846BDE8F0870FE0384605F0AE
:1031F0007DFA0146484609F08DFE28B9636A1BB185
:1032000000221146204698474046ECE7636A1BB10E
:1032100000221146204698470020E4E72E2E2F4D2D
:103220006964646C6577617265732F546869726450
:103230005F50617274792F4C7749502F7372632FEE
:103240006170692F6170695F6D73672E63000000A4
:10325000657870656374206E6577706362203D3DAC
:10326000204E554C4C206F7220657272203D3D20DF
:103270004552525F4F4B0000417373657274696F22
:103280006E2022257322206661696C65642061745A
:10329000206C696E6520256420696E2025730A0004
:1032A00058B1426A002A0FD05379082B0CD1096813
:1032B000D269914208D100F0C3BA04A340F28B3224
:1032C00010A114A0FDF7ECB8704700002E2E2F4D72
:1032D0006964646C6577617265732F5468697264A0
:1032E0005F50617274792F4C7749502F7372632F3E
:1032F000636F72652F697076342F646863702E6314
:10330000000000006E6574696620213D204E554C1A
:103310004C000000417373657274696F6E20222542
:103320007322206661696C6564206174206C696E2B
:103330006520256420696E2025730A002DE9FC4173
:1033400005001AD06C6AECB100236382A16A4FF0C9
:103350003C07B1F1FF3F4FF480364FF001024FF6CA
:10336000FF7019D01E31B1FBF7F1B14200D3014615
:103370000904090CA1820ED00EE02DA340F21542E3
:1033800039A103E02AA340F217423EA143A0FDF772
:1033900087F8BDE8FC81A282E16AB1F1FF3F0CD061
:1033A0001E31B1FBF7F1B14200D301460904090C0B
:1033B000618100D162816189E181216BB1F1FF3FBF
:1033C0000CD01E31B1FBF7F1B14200D30146090424
:1033D000090CA18100D1A281A18921826289A189E0
:1033E0008A4201D301B16381E17909B1206A08E021
:1033F000217F7F2901D8FF2003E0C02901D36FF08E
:103400007F400090606A019028B9E0690099084007
:1034100040F0807001900A21204601F0C7FA01AB0C
:103420006A4604F11C01284607F090F8B1E7000055
:103430002E2E2F4D6964646C6577617265732F540D
:10344000686972645F50617274792F4C7749502FAC
:103450007372632F636F72652F697076342F64689F
:1034600063702E6300000000646863705F62696EC1
:10347000643A206E6574696620213D204E554C4C9F
:1034800000000000646863705F62696E643A2064E3
:1034900068637020213D204E554C4C00417373658C
:1034A0007274696F6E2022257322206661696C65D3
:1034B00064206174206C696E6520256420696E202B
:1034C00025730A0070B5446A05460821204601F0BC
:1034D0006DFA002204F11C01284602F021FAA079BD
:1034E000FF2801D2401CA0714FF4FA7140F2E7307E
:1034F000B0FBF1F0208170BD70B5294804684CE044
:10350000606AA0B3417991B3818A69B1418A491C4B
:1035100089B24182828A914206D1204601F07CF82C
:10352000204601F04BFA37E0018A19B14A1E0282A7
:10353000012906D0C189D1B14A1EC281012917D003
:103540002AE0656A20466979012905D00A2903D055
:10355000052901D004291FD100F0E2FEA88A698A5A
:10356000401A022818DB00EBD0704008288213E0D4
:10357000656A20466979012903D00A2901D0052905
:103580000AD101F0A7F8A889698A401A022803DB4A
:1035900000EBD0704008E8812468002CB0D170BDE9
:1035A00094C001202DE9F047994616460D460700C4
:1035B0001BD0002D1ED04FF49A744FF42072214678
:1035C000362007F031FCB0F100081BD0B8F80A0033
:1035D000A246504506D232A340F271723EA14EA0DF
:1035E000FCF75EFF032E12D10EE02DA340F26972AC
:1035F00053A103E02AA340F26A7259A146A0FCF746
:103600004FFF0020BDE8F0876879032808D1A8792A
:103610005B4C08B1A06802E0FCF790FEA060286057
:10362000D8F8044051462046FDF782F90120207069
:10363000607097F83000A070286804F06DFA606040
:10364000082E0AD0042E08D0072E06D0032E06D14D
:103650006879052801D0042801D17868E06000204D
:1036600039182218401C91F82A1080B211770628C8
:10367000F6D34448C4F8EC0004F1F00101233522EC
:103680000C46002000F0D6FA3246214600F01EFB20
:10369000B9F1000F01D0A9F800004046B2E70000E0
:1036A0002E2E2F4D6964646C6577617265732F549B
:1036B000686972645F50617274792F4C7749502F3A
:1036C0007372632F636F72652F697076342F64682D
:1036D00063702E6300000000646863705F6372654E
:1036E0006174655F6D73673A20636865636B20740E
:1036F00068617420666972737420706275662063F5
:10370000616E20686F6C64207374727563742064DA
:103710006863705F6D736700417373657274696F7E
:103720006E2022257322206661696C6564206174B5
:10373000206C696E6520256420696E2025730A005F
:10374000646863705F6372656174655F6D73673A27
:10375000206E6574696620213D204E554C4C00005A
:10376000646863705F6372656174655F6D73673A07
:10377000206468637020213D204E554C4C000000B1
:10378000BC0000206382536310B50B4C20780028E6
:1037900005D10AA3FF2217A11FA0FCF781FE207804
:1037A000401E10F0FF00207004D1E06810F0BAF85D
:1037B0000020E06010BD0000BC0000202E2E2F4D28
:1037C0006964646C6577617265732F5468697264AB
:1037D0005F50617274792F4C7749502F7372632F49
:1037E000636F72652F697076342F646863702E631F
:1037F00000000000646863705F7063625F726566FA
:10380000636F756E7428293A20726566636F756EF2
:1038100074206572726F7200417373657274696FA0
:103820006E2022257322206661696C6564206174B4
:10383000206C696E6520256420696E2025730A005E
:10384000FEB5446A06460C21204601F0AFF802ABF3
:10385000042221463046FFF7A5FE050028D06968FE
:103860000423F03132220F46BDF8080000F0E2F9DF
:10387000ADF80800E06904F04FF902463946BDF89A
:10388000080000F081FAADF808002A46394600F039
:103890004BFB0F484323CDE900600F480D4A2946F2
:1038A000C06810F0C1F90646284607F0D7FE01E0CF
:1038B0004FF0FF36A079FF2801D2401CA07142F6DC
:1038C00003104FF4FA71B0FBF1F020813046FEBDD9
:1038D0000055010804550108BC0000202DE9FE4FE9
:1038E000446A07464FF0000906212046C4F81C90A0
:1038F00001F05CF802AB012221463846FFF752FE88
:1039000006003BD071680223F0318A4639225546C1
:10391000BDF8080000F08EF9ADF808003A8D294690
:1039200000F09EFAADF8080004233722294600F083
:1039300081F9DFF88480ADF808000025514618F8B9
:103940000520BDF8080000F0C1F96D1CEDB2ADF81E
:103950000800042DF2D33246514680B200F0E4FA5A
:1039600016484323CDE900701348154A401E3146DE
:10397000C06810F059F9304607F070FEA079FF28B2
:1039800001D2401CA071C1B2062902D20120884098
:1039900000E03C2000EB4001C1EBC0104FF6FF718E
:1039A00001EAC0004FF4FA7100F2F310B0FBF1F03D
:1039B00020814846BDE8FE8FBD000020005501086B
:1039C0000455010870B50B48002504680EE0606AD4
:1039D00058B10189012903D9A1F10101018104E054
:1039E00003D10581204601F08BF82468002CEED12C
:1039F00070BD000094C00120F8B5446A00201F4D3E
:103A000020626062EA78A5F128060AB1F268A26233
:103A10002A790AB1326901E0A26A5208E2626A793F
:103A20000AB1726903E0A26AC2EBC202D208226341
:103A30000969E161A97921B1B06904F06DF82062EA
:103A40000120E071E87918B1F06904F065F860626E
:103A500000240DE006EB8400006A04F05DF800909D
:103A60006946204601F06AFA641CE4B2022C03D2D3
:103A70002819007A0028EDD1F8BD00000883012044
:103A800010B5154C207800281ED1E068002805D01C
:103A900012A3E5221FA129A0FCF702FD0FF0EEFE04
:103AA000E060B0B1417A442241F0200141722D49D9
:103AB0000FF01AFC43222B49E0680FF0AFFC002204
:103AC0002949E0680FF0EAFE2078401C20700020B1
:103AD00010BD4FF0FF3010BDBC0000202E2E2F4D2A
:103AE0006964646C6577617265732F546869726488
:103AF0005F50617274792F4C7749502F7372632F26
:103B0000636F72652F697076342F646863702E63FB
:103B100000000000646863705F696E635F706362D9
:103B20005F726566636F756E7428293A206D656DE6
:103B30006F7279206C65616B0000000041737365E2
:103B40007274696F6E2022257322206661696C652C
:103B500064206174206C696E6520256420696E2084
:103B600025730A0000550108F944000870B5446A3D
:103B70000546002C22D060790026042818D004DCE9
:103B800000281BD0032804D112E0052810D00A28F1
:103B90000ED00C2806D90AA340F26D3216A11BA044
:103BA000FCF77EFCA6712846BDE87040FFF796BE84
:103BB000A6712846BDE8704000F01EBC70BD000034
:103BC0002E2E2F4D6964646C6577617265732F5476
:103BD000686972645F50617274792F4C7749502F15
:103BE0007372632F636F72652F697076342F646808
:103BF00063702E6300000000696E76616C6964205A
:103C0000646863702D3E73746174650041737365FD
:103C10007274696F6E2022257322206661696C655B
:103C200064206174206C696E6520256420696E20B3
:103C300025730A002DE9F0411D4604462844801CE6
:103C400017460E46442806D907A340F29A52144953
:103C500014A0FCF725FC3755641CA0B23554401C59
:103C600080B2BDE8F08100002E2E2F4D6964646C97
:103C70006577617265732F54686972645F50617211
:103C800074792F4C7749502F7372632F636F72656D
:103C90002F697076342F646863702E630000000013
:103CA00070560108417373657274696F6E20222526
:103CB0007322206661696C6564206174206C696E92
:103CC0006520256420696E2025730A0070B51546AD
:103CD0000E460446442806D305A340F2A65212A17C
:103CE0001FA0FCF7DDFB3555641CA0B270BD0000C1
:103CF0002E2E2F4D6964646C6577617265732F5445
:103D0000686972645F50617274792F4C7749502FE3
:103D10007372632F636F72652F697076342F6468D6
:103D200063702E6300000000646863705F6F7074DE
:103D3000696F6E5F627974653A206F7074696F6E37
:103D4000735F6F75745F6C656E203C204448435010
:103D50005F4F5054494F4E535F4C454E000000009A
:103D6000417373657274696F6E2022257322206619
:103D700061696C6564206174206C696E65202564DE
:103D800020696E2025730A0070B50546001D144693
:103D90000E46442806D90BA340F2B75217A126A01D
:103DA000FCF77EFB200E70556D1CA8B2210C31541F
:103DB000401C80B2210A3154401C80B23454401C53
:103DC00080B270BD2E2E2F4D6964646C6577617270
:103DD00065732F54686972645F50617274792F4CF7
:103DE0007749502F7372632F636F72652F697076F6
:103DF000342F646863702E63000000006468637091
:103E00005F6F7074696F6E5F6C6F6E673A206F7072
:103E100074696F6E735F6F75745F6C656E202B20B5
:103E200034203C3D20444843505F4F5054494F4E4E
:103E3000535F4C454E000000417373657274696FA7
:103E40006E2022257322206661696C65642061748E
:103E5000206C696E6520256420696E2025730A0038
:103E600070B50446801C15460E46442806D907A3A3
:103E700040F2AE5213A122A0FCF712FB280A3055E3
:103E8000641CA0B23554401C80B270BD2E2E2F4D44
:103E90006964646C6577617265732F5468697264D4
:103EA0005F50617274792F4C7749502F7372632F72
:103EB000636F72652F697076342F646863702E6348
:103EC00000000000646863705F6F7074696F6E5FFC
:103ED00073686F72743A206F7074696F6E735F6F7E
:103EE00075745F6C656E202B2032203C3D20444869
:103EF00043505F4F5054494F4E535F4C454E000066
:103F0000417373657274696F6E2022257322206677
:103F100061696C6564206174206C696E652025643C
:103F200020696E2025730A00FF230B54401C80B2C9
:103F3000002302E00B54401C80B24428FAD3F03036
:103F400081B2104607F094BC2DE9F04F85B082464F
:103F5000002004900A21AF48FCF70CFDBAF80A00D3
:103F60002C2816D3BAF80800AA4F4FF0F00956468D
:103F700007E000BFA9EB0102401A36681FFA82F978
:103F800080B236B171894A464945F3D91446029048
:103F90000DE16FF0010005B0BDE8F08FA01C80B20C
:103FA0004FF0FF350190A042F3D37389621C934216
:103FB00003D903982044407803E0306808B1406892
:103FC0000078342980464DD00BDC032921D003DC56
:103FD000A1B101290DD114E0062924D0332908D13B
:103FE00037E0352965D036296CD03A2975D03B2980
:103FF0007BD04FF0000800297FD042E000208046AF
:10400000F9E7042803D084A340F22E6226E00625B7
:10401000F1E74FF00408042803D27FA340F2336293
:1040200013E00725E7E7830704D07BA340F239625A
:1040300087A1C3E0082801D2434600E00823984640
:10404000404504D274A340F23C6285A1B6E0082545
:10405000D1E7042804D070A340F2416285A1ADE00D
:104060000325C8E7012803D06BA340F24F6225E087
:10407000B9F1F00F04D068A340F2516280A19DE035
:1040800000252044801CB0F5803F82D284B2B8F174
:10409000000F7ED0002000900A2D06D35EA34FF4BF
:1040A000CF627DA181A0FCF7FBF9785D002826D0C6
:1040B0006FE0012804D058A340F2556285A17DE04D
:1040C000012598E7042806D053A340F25962C5E7BA
:1040D00003E00AE011E002258DE7042803D04EA397
:1040E00040F25D62BAE7042585E7042803D04AA3BD
:1040F00040F26162B2E705257DE794B249E04046AF
:10410000B8F1040F00D304208346024669463046C6
:10411000019B07F017FA58457FF43BAFB8F1040F45
:104120001ED95FEA887004D03BA340F281626CA183
:1041300044E001207855009803F0EEFC3549283919
:1041400041F82500A8F1040000F0FF08019801994A
:10415000001D80B28842FFF41CAF6D1C01909BE7EC
:10416000B8F1040F07D0B8F1010F08D02AA34FF41B
:10417000D26261A122E0009803F0CEFC01E09DF83C
:10418000000000900120785522480099283840F816
:1041900025107089A04217D8211A8CB20299081AEA
:1041A00080B202908442BFF4F4AE366816B17068F3
:1041B00003900AE018A340F29D6254A13BA0FCF7D3
:1041C0006FF96FF00500E6E63EB10298844204D232
:1041D0000398015DFF297FF4E1AE387850B10D48B6
:1041E000002128380068397001280ED0022804D038
:1041F000032808D004980028E5D0002004904FF050
:104200002C096C20B3E6012004904FF06C09EC20DF
:10421000ADE60000088301202E2E2F4D6964646CEA
:104220006577617265732F54686972645F5061725B
:1042300074792F4C7749502F7372632F636F7265B7
:104240002F697076342F646863702E63000000005D
:104250006C656E2025252034203D3D203000000077
:104260006C656E203E3D206465636F64655F6C65C0
:104270006E0000006C656E203D3D203400000000A3
:104280006F7665726C6F616420696E2066696C651B
:104290002F736E616D650000636865636B206465F4
:1042A000636F64655F696478000000004173736543
:1042B0007274696F6E2022257322206661696C65B5
:1042C00064206174206C696E6520256420696E200D
:1042D00025730A006C656E203D3D20310000000012
:1042E0006465636F64655F6C656E202525203420EE
:1042F0003D3D203000000000696E76616C696420ED
:104300006465636F64655F6C656E00006E657874EC
:10431000207062756620776173206E756C6C00008A
:104320002DE9FC47446A07460421204600F03EFB85
:1043300001AB032221463846FFF734F906003BD093
:1043400071680223F031894639224D46BDF80400D8
:10435000FFF770FCADF804003A8D2946FFF780FDA9
:10436000ADF80400042337222946FFF763FCDFF889
:104370008080ADF804000025494618F80520BDF8F6
:104380000400FFF7A3FC6D1CEDB2ADF80400042D92
:10439000F2D33246494680B2FFF7C6FD1448009773
:1043A000401E4323134A3146C0680FF09DFB05466B
:1043B000304607F053F901E04FF0FF35A079FF28B0
:1043C00001D2401CA071C0B20A2804D24FF47A7105
:1043D00010FB01F001E042F2107080B24FF4FA716C
:1043E00000F2F310B0FBF1F020812846BDE8FC8715
:1043F000BD000020045501082DE9FC47446A07462A
:104400000321204600F0D2FA01AB032221463846B0
:10441000FFF7C8F806004FD071680223F0318946D3
:1044200039224D46BDF80400FFF704FCADF8040046
:104430004FF410722946FFF713FDADF80400042372
:1044400032222946FFF7F6FBADF80400E06903F0DD
:1044500063FB02462946BDF80400FFF795FCADF862
:104460000400042337222946FFF7E4FBDFF88080AD
:10447000ADF80400002500BF18F805204946BDF836
:104480000400FFF723FC6D1CEDB2ADF80400042D11
:10449000F2D33246494680B2FFF746FD14480097F2
:1044A000401E4323134A3146C0680FF01DFB0546EA
:1044B000304607F0D3F801E04FF0FF35A079FF2830
:1044C00001D2401CA071C0B20A2804D24FF47A7104
:1044D00010FB01F001E042F2107080B24FF4FA716B
:1044E00000F2F310B0FBF1F020812846BDE8FC8714
:1044F000BD000020045501082DE9F04143485168F2
:1045000016464468656A002D7AD02879002877D04D
:1045100070892C2874D30878022871D1002094F86F
:10452000302008E023180F1893F82A303F7FBB4251
:1045300066D1401CC0B2824201D90628F2D3486835
:1045400003F0EAFA296888425AD129463046FFF733
:10455000FBFC10BB2E494878F8B1A1F1280277681E
:104560001079052804D0062821D0022836D047E04B
:104570006879012806D0032814D0042812D0052811
:1045800010D03DE039462046FFF736FA94F8310066
:10459000000703D52046FEF795FF31E02046FEF7E1
:1045A000CDFE2DE039462046FFF726FAF6E768797A
:1045B000032805D0012803D0042801D005281FD1E5
:1045C0000C21606A00F0F2F9124B20461A4611469F
:1045D00005F0BCFF2046FFF781F911E06879062855
:1045E0000ED12546646A887850B1002020819068F9
:1045F00003F092FAA0613869E061284600F0D6F82D
:104600003046BDE8F04107F029B800007CC1012028
:1046100008830120005501082DE9FE43446A07463E
:10462000002C51D0607900284ED0A069029000255E
:10463000A561E561256265622563E562A562A582E3
:1046400065822582E581384600F04CFA60B301AB03
:10465000072221463846FEF7A5FF060024D07168E0
:104660000423F03136228846BDF80400FFF7E2FA51
:10467000ADF80400029803F04FFA02464146BDF837
:104680000400FFF781FBADF8040032464146FFF716
:104690004BFC0E480097432302AA3146C0680FF036
:1046A00023FA304606F0DAFF094B38461A4611461F
:1046B00005F04CFF0021204600F078F92079002811
:1046C00002D0FFF761F82571BDE8FE83BC00002031
:1046D000005501082DE9FC47446A0746052120469C
:1046E00000F064F901AB032221463846FEF75AFF79
:1046F00006003CD071680223F031894639224D46CC
:10470000BDF80400FFF796FAADF804003A8D29468B
:10471000FFF7A6FBADF80400042337222946FFF774
:1047200089FADFF88480ADF804000025494618F8BE
:104730000520BDF80400FFF7C9FA6D1CEDB2ADF815
:104740000400042DF2D33246494680B2FFF7ECFB59
:1047500015480097401E432304F118023146C068F3
:104760000FF0C2F90546304606F078FF01E04FF041
:10477000FF35A079FF2801D2401CA071C0B20A28E1
:1047800004D24FF4FA6110FB01F001E044F620601E
:1047900080B24FF4FA7100F2F310B0FBF1F0208117
:1047A0002846BDE8FC870000BD0000202DE9FE433F
:1047B000070073D07C6A002C7CD00121204600F0D9
:1047C000F5F802AB032221463846FEF7EBFE060061
:1047D0007AD071680223F031894639224D46BDF8FE
:1047E0000800FFF727FAADF808003A8D2946FFF7D1
:1047F00037FBADF80800042332222946FFF71AFAE6
:10480000ADF80800E06903F087F902462946BDF8D3
:104810000800FFF7B9FAADF808000423362229464C
:10482000FFF708FAADF80800A06903F075F9024631
:104830002946BDF80800FFF7A7FAADF808000423E1
:1048400037222946FFF7F6F9DFF8BC80ADF80800FB
:10485000002500BF18F805204946BDF80800FFF7FD
:1048600035FA6D1CEDB2ADF80800042DF2D33246D6
:10487000494680B2FFF758FB24484323CDE9007036
:104880002148234A401E3146C0680FF0CDF9054645
:10489000304606F0E3FE19E000E00BE01DA340F215
:1048A00077122AA130A0FBF7FBFD6FF00F00BDE8E7
:1048B000FE8309E017A340F2791235A12AA0FBF785
:1048C000EFFD6FF00500F2E74FF0FF35A079FF280C
:1048D00001D2401CA071C0B2062802D20121814041
:1048E00000E03C2101EB4100C0EBC1104FF6FF712D
:1048F00001EAC0004FF4FA7100F2F310B0FBF1F0DE
:1049000020812846D3E70000BD00002000550108A3
:10491000045501082E2E2F4D6964646C6577617211
:1049200065732F54686972645F50617274792F4C9B
:104930007749502F7372632F636F72652F6970769A
:10494000342F646863702E63000000006468637035
:104950005F73656C6563743A206E657469662021C7
:104960003D204E554C4C0000417373657274696F65
:104970006E2022257322206661696C656420617453
:10498000206C696E6520256420696E2025730A00FD
:10499000646863705F73656C6563743A2064686310
:1049A0007020213D204E554C4C00000042798A4237
:1049B00003D04171002181710181704770B50500FC
:1049C0006FF00F041AD095F83100C0071BD0288D66
:1049D0006C6A4FF0FF36B0F5107F0DD3002C1BD062
:1049E000207908B1FEF7D0FE34212046FBF7C2FF44
:1049F000FFF746F8002816D0304670BD14A340F2E9
:104A0000E72221A103E012A34FF43A7222A12BA0C6
:104A1000FBF746FD204670BD342004F0AFF80400DB
:104A2000EAD06C62E0E70120207195F83100400780
:104A300005D402212046FFF7B9FF002070BD2846AB
:104A4000FEF74CFF0028F9D02846FFF7E5FDD3E735
:104A50002E2E2F4D6964646C6577617265732F54D7
:104A6000686972645F50617274792F4C7749502F76
:104A70007372632F636F72652F697076342F646869
:104A800063702E63000000006E6574696620213D2E
:104A9000204E554C4C0000006E65746966206973A9
:104AA000206E6F742075702C206F6C642073747985
:104AB0006C6520706F72743F000000004173736575
:104AC0007274696F6E2022257322206661696C659D
:104AD00064206174206C696E6520256420696E20F5
:104AE00025730A0040B1406A30B140790A2805D0E8
:104AF000052803D0042801D000207047012070470A
:104B000010B5426A044651790C290BD0062909D008
:104B100001290BD0082918D0032926D19079022821
:104B200020461ED3BDE81040FEF7D8BE9079052878
:104B3000204603D8BDE81040FFF738BEFFF76CFDF4
:104B40002046BDE81040FFF739BF90790128204684
:104B500003D8BDE81040FEF7B5BCBDE81040FEF735
:104B6000EDBBBDE81040FFF747BC10BD01004FF0A2
:104B700000000AD0C97A4A1C022A06D2034A02EB74
:104B800081014968002900D0012070475C000020A5
:104B90002DE9F35FDFF88880064600EB0611A8F5E3
:104BA0008869002509EB0114AA4604F1100B00BF27
:104BB00005EB4507404658F8273053B100EB870115
:104BC0000A7AB24205D14A6858460199984748F88E
:104BD00027A06D1CEDB2042DEAD300210425484620
:104BE000B1420DD001EB011200EB0212937A022BBD
:104BF00006D1D27BE37B9A4202D1E573BDE8FC9FEC
:104C0000491CC9B20429EBD3E07B0428F6D2054E37
:104C100056F820000EF086FEE17B46F821A0ECE776
:104C2000E8990020989500202DE9F0410746324E82
:104C300000EB071006EB0014042F06D32FA340F25D
:104C40001C423AA140A0FBF72BFCA07A002850D0D0
:104C500000254FF0010801280CD0022821D003289C
:104C600041D0BDE8F04125A340F25B4240A136A00F
:104C7000FBF716BCFBF762FB81B2002000EB0012D1
:104C800006EB0212937A022B02D112898A42F1D0EA
:104C9000401CC0B20428F1D321810220A072E57229
:104CA00018E0207B401E10F0FF00207321D1607BB4
:104CB000401CC0B26073042805D020733846BDE89C
:104CC000F04100F067B82046FFF750FF30B1E07ABE
:104CD000401CE07284F80C806573EFE700213846D1
:104CE000FFF756FF04E0206810B1401E206000D19D
:104CF000A572BDE8F0810000A89500202E2E2F4D52
:104D00006964646C6577617265732F546869726455
:104D10005F50617274792F4C7749502F7372632FF3
:104D2000636F72652F646E732E630000617272612F
:104D30007920696E646578206F7574206F662062D3
:104D40006F756E6473000000417373657274696FF0
:104D50006E2022257322206661696C65642061746F
:104D6000206C696E6520256420696E2025730A0019
:104D7000756E6B6E6F776E20646E735F7461626CBC
:104D80006520656E7472792073746174653A0000F1
:104D9000704700002DE9FF5F04464A4900EB04100C
:104DA00001EB0015E87A022806D347A340F2FA2265
:104DB00051A157A0FBF774FBE97A5F48002650F831
:104DC000210040B305F110000446FBF713FD12303B
:104DD00081B24FF42072362006F026F85FEA000A0E
:104DE00065D0009601960296288902F097FEADF8EC
:104DF000000001208DF802004FF4807BADF804B074
:104E00000C226946504606F091FE0C26641E641C76
:104E1000274600220BE000212046FFF7B9FEAE72C4
:104E2000002004B0BDE8F09F521CD2B2641C207870
:104E30002E2801D00028F7D1E01B1FFA80F9B01806
:104E400000F10108B8F5803F35D23146504606F0F2
:104E5000FFFC761CB3B24A463946504606F022FFA4
:104E600020781FFA88F60028D1D10022314650461A
:104E700006F0EEFC761CADF80CB0B3B2ADF80EB097
:104E8000042203A9504606F00DFFEA7A2A49E87B7E
:104E900001EB82020B493523103951F820005146AD
:104EA0000EF098FD0446504606F0D8FB01E04FF0A6
:104EB000FF342046B5E7504606F0D0FB6FF0050002
:104EC000AFE70000A89500202E2E2F4D6964646C7A
:104ED0006577617265732F54686972645F5061729F
:104EE00074792F4C7749502F7372632F636F7265FB
:104EF0002F646E732E630000646E73207365727688
:104F00006572206F7574206F66206172726179001E
:104F1000417373657274696F6E2022257322206657
:104F200061696C6564206174206C696E652025641C
:104F300020696E2025730A005C000020022805D23B
:104F4000044A02EB800011B1096801607047024910
:104F5000FAE700005C0000200055010810B50024AD
:104F60002046FFF761FE641CE4B2042CF8D310BDA8
:104F700070B505460C46880706D009A34FF4B672F3
:104F800013A11BA0FBF78CFA07F04EFFA968096874
:104F90002160A9680C60BDE8704007F06DBF00009B
:104FA0002E2E2F4D6964646C6577617265732F5482
:104FB000686972645F50617274792F4C7749502F21
:104FC0007372632F636F72652F6D656D702E630052
:104FD0006D656D705F667265653A206D656D2070F8
:104FE000726F7065726C7920616C69676E656400C0
:104FF000417373657274696F6E2022257322206677
:1050000061696C6564206174206C696E652025643B
:1050100020696E2025730A0070B5044607F004FF6E
:105020000546A0680468002C0FD021680160A00725
:1050300006D008A34FF48C7212A11BA0FBF730FA24
:10504000284607F019FF204670BD284607F014FFD8
:10505000002070BD2E2E2F4D6964646C65776172DF
:1050600065732F54686972645F50617274792F4C54
:105070007749502F7372632F636F72652F6D656D63
:10508000702E63006D656D705F6D616C6C6F633A5F
:10509000206D656D702070726F7065726C79206123
:1050A0006C69676E65640000417373657274696F43
:1050B0006E2022257322206661696C65642061740C
:1050C000206C696E6520256420696E2025730A00B6
:1050D0002DE9F0470F46040006D13FA34FF4DC72E0
:1050E0004AA14EA0FBF7DCF907F09EFE00266660A1
:1050F0002772217F41F0010121776578667007F002
:10510000BBFE636A7BB10022042120469847636A94
:105110004BB10022114620469847636A1BB100221A
:10512000022120469847384603F0E0FA804604F111
:105130001000814607F0FAFE18B14146484607F0D4
:10514000E9FE04F11400814607F0F0FE18B1414673
:10515000484607F0DFFE012D0FD0042D0DD0032DA2
:105160000BD0206A002834D0BDE8F0471AA340F2E3
:10517000F71234A129A0FBF793B9217FC1F3800076
:1051800001F0FB012177002823D1206A30B912A356
:105190004FF4F37232A121A0FBF782F9206A042DAB
:1051A00008D00771206A05680C35284607F0F6FE1E
:1051B00010B108E00671F5E707A340F2EF122FA146
:1051C00016A0FBF76DF928462662BDE8F04707F008
:1051D000E2BEBDE8F08700002E2E2F4D6964646C9E
:1051E0006577617265732F54686972645F5061728C
:1051F00074792F4C7749502F7372632F6170692F28
:105200006170695F6D73672E63000000636F6E6E7F
:1052100020213D204E554C4C000000004173736529
:105220007274696F6E2022257322206661696C6535
:1052300064206174206C696E6520256420696E208D
:1052400025730A00636F6E6E2D3E63757272656E14
:10525000745F6D7367203D3D204E554C4C0000003F
:10526000636F6E6E2D3E63757272656E745F6D73E3
:105270006720213D204E554C4C000000696E617640
:105280006C6964206F705F636F6D706C65746564CA
:105290005F73656D0000000070B5094D064600247F
:1052A00004EB440005EBC000017D29B18068B042E9
:1052B00002D1204600F036F9641C0A2CF0DB70BDE8
:1052C000148301202DE9F74F84B04FF00A0B00241E
:1052D0000646DA465F46D94602940194CDF800406E
:1052E000514904EB440001EBC008039098F81450B6
:1052F0000A2F1DD0002D2AD0012D08D0022D06D254
:105300004AA340F2231257A166A0FBF7C9F89EB149
:105310003168D8F8040081420ED1069820B1D8F83F
:1053200008100698814207D1204607B0BDE8F08FEB
:10533000002DE1D127460AE0012D16D0022D06D31B
:10534000B8F812000099884201D3A2460090641C6C
:1053500024B20A2CC4DB059881074FF0FF30E4D457
:105360000A2F16D018DA3C463EE02F49039851F830
:1053700030000028B8F8120005D002998842E6D320
:10538000A1460290E3E701998842E0D3A346019049
:10539000DDE70599C907C8D05146BAF10A0F0EDA00
:1053A0000C46214801EB440150F8310080B11FA3A5
:1053B00040F26D1245A13BA0FBF772F808E0594698
:1053C000BBF10A0F03DB4946B9F10A0FADDA0C460F
:1053D0000A2C06DB15A340F27F1242A131A0FBF795
:1053E0005FF8204600F09EF80A2C06DB0FA340F27F
:1053F00083123CA12BA0FBF753F80B4804EB4401AC
:1054000000EBC105287D30B108A34FF4C2723AA168
:1054100024A0FBF745F80EB1306868600020688270
:105420000698A86080E70000148301202E2E2F4DDF
:105430006964646C6577617265732F54686972641E
:105440005F50617274792F4C7749502F7372632FBC
:10545000636F72652F697076342F6574686172703E
:105460002E6300007374617465203D3D20455448EF
:105470004152505F53544154455F50454E44494E4C
:1054800047207C7C207374617465203E3D20455428
:10549000484152505F53544154455F535441424C2C
:1054A00045000000417373657274696F6E20222598
:1054B0007322206661696C6564206174206C696E7A
:1054C0006520256420696E2025730A006172705F73
:1054D0007461626C655B695D2E71203D3D204E55A7
:1054E0004C4C000069203C204152505F5441424CDA
:1054F000455F53495A4500006172705F7461626C88
:10550000655B695D2E7374617465203D3D20455473
:10551000484152505F53544154455F454D50545992
:105520000000000070B5074C00EB4005002654F861
:10553000350018B106F092F844F8356004EBC50068
:10554000067570BD148301202DE9F04385B00D0070
:10555000074609D07C684FF480782088404542D1C6
:10556000207906283FD109E021A340F28A222EA10A
:1055700031A0FAF795FF05B0BDE8F0836079042803
:1055800031D1608808282ED1D4F80E000490A1698A
:10559000686820B1814202D10126334601E000262D
:1055A000022304F10802914604A9284600F0ACFB4E
:1055B000E088404503D0B0F5007F14D10FE096B1EC
:1055C000022204ABCDE90232291DCDE9001905F113
:1055D0002A0319464A46284600F096FA03E004A931
:1055E0002846FDF75DFE384606F038F8C3E70000B0
:1055F0002E2E2F4D6964646C6577617265732F542C
:10560000686972645F50617274792F4C7749502FCA
:105610007372632F636F72652F697076342F6574B0
:10562000686172702E6300006E6574696620213DAA
:10563000204E554C4C000000417373657274696FC5
:105640006E2022257322206661696C656420617476
:10565000206C696E6520256420696E2025730A0020
:10566000FEB515460E46040006D143A340F21E3295
:105670004FA153A0FAF714FF36B93FA340F21F32EF
:1056800059A14FA0FAF70CFF35B93BA34FF448726C
:1056900058A14BA0FAF704FF2146286801F048F80A
:1056A00008B1584B3FE02868C0F303110E2925D0FC
:1056B000A168636800EA01020B409A4208D080B2F8
:1056C000A0F57E41A93903D0E068B0B304F10C0520
:1056D0004D4B4E481A7802EB420100EBC1010F7DA1
:1056E000022F2ED38F68A7422BD12F6849688F4293
:1056F00027D13146204600F08BF8FEBD01208DF801
:10570000040000208DF805005E208DF80600687802
:1057100001AB00F07F008DF80700A8788DF8080035
:10572000E8788DF809004FF40060009004F12A0237
:105730003146204600F0E4FCFEBDFFE76FF00300B9
:10574000FAE7002202EB420100EBC1010F7D022FBC
:1057500008D38F68A74205D12F6849688F4201D1CD
:105760001A70C6E7521CD2B20A2AEBD33246294637
:10577000204600F0D5F8DFE72E2E2F4D6964646CCB
:105780006577617265732F54686972645F506172E6
:1057900074792F4C7749502F7372632F636F726542
:1057A0002F697076342F6574686172702E63000003
:1057B0006E6574696620213D204E554C4C000000FA
:1057C000417373657274696F6E202225732220669F
:1057D00061696C6564206174206C696E6520256464
:1057E00020696E2025730A007120213D204E554C02
:1057F0004C00000069706164647220213D204E55A8
:105800004C4C00008C530108CCC0012014830120B3
:105810002DE9F8430646154688461C4802EB45012B
:1058200000EBC104207D022806D219A340F2EE222B
:1058300025A131A0FAF734FE144A05EB4501207D7D
:1058400002EBC1050C35022813D1608A0327B0F59D
:105850008E7F04D9211D304600F010FA07E0B0F524
:10586000877F06D32A46211D304600F00DFA00B985
:1058700027754FF4006000902B4606F12A0241463E
:10588000304600F03DFCBDE8F883000014830120A1
:105890002E2E2F4D6964646C6577617265732F5489
:1058A000686972645F50617274792F4C7749502F28
:1058B0007372632F636F72652F697076342F65740E
:1058C000686172702E6300006172705F7461626C57
:1058D000655B6172705F6964785D2E737461746575
:1058E000203E3D204554484152505F535441544559
:1058F0005F535441424C4500417373657274696F44
:105900006E2022257322206661696C6564206174B3
:10591000206C696E6520256420696E2025730A005D
:105920002DE9FC5F82462A3001900E460868144635
:105930004FF0FF374FF0000B514600F0F9FE80B9F1
:105940003068C0F303110E290BD056B148B152464E
:1059500001213046FFF7B6FC050005D540B2BDE891
:10596000FC9F6FF00F00FAE77F2D06D337A340F2BC
:10597000C13244A147A0FAF793FD05F0FF094F4952
:1059800009EB490801EBC805287D00280ED0012845
:1059900008D0022806D22DA340F2CD3248A13DA066
:1059A000FAF77EFDBBF1000F06D104E00120287557
:1059B000C5F808A000E034B93146504600F05EF961
:1059C0000746002CCBD0287D3C4E02280ED34649FA
:1059D0004FF4006005F10C0381F80090009021461F
:1059E0005046019A00F08CFB07462DE001282BD190
:1059F000254640F2F13768892989884207D128680D
:105A000028B112A33A4639A122A0FAF749FD287B12
:105A1000400607D522464FF420710E2005F054FCB5
:105A2000044605E02D68002DE5D1204605F0BAFFBB
:105A300044B156F8380008B105F010FE46F8384079
:105A4000002701E04FF0FF37384688E72E2E2F4D14
:105A50006964646C6577617265732F5468697264F8
:105A60005F50617274792F4C7749502F7372632F96
:105A7000636F72652F697076342F65746861727018
:105A80002E63000074797065206F766572666C6FA6
:105A900077000000417373657274696F6E20222570
:105AA0007322206661696C6564206174206C696E84
:105AB0006520256420696E2025730A001483012067
:105AC0006172705F7461626C655B695D2E73746195
:105AD0007465203D3D2050454E44494E47206F722D
